{
	"_format": "hh-sol-artifact-1",
	"contractName": "Dex",
	"sourceName": "contracts/Dex.sol",
	"abi": [
		{
			"inputs": [],
			"stateMutability": "nonpayable",
			"type": "constructor"
		},
		{
			"inputs": [],
			"name": "buyDAI",
			"outputs": [],
			"stateMutability": "nonpayable",
			"type": "function"
		},
		{
			"inputs": [
				{
					"internalType": "address",
					"name": "",
					"type": "address"
				}
			],
			"name": "daiBalances",
			"outputs": [
				{
					"internalType": "uint256",
					"name": "",
					"type": "uint256"
				}
			],
			"stateMutability": "view",
			"type": "function"
		},
		{
			"inputs": [
				{
					"internalType": "uint256",
					"name": "_amount",
					"type": "uint256"
				}
			],
			"name": "depositDAI",
			"outputs": [],
			"stateMutability": "nonpayable",
			"type": "function"
		},
		{
			"inputs": [
				{
					"internalType": "uint256",
					"name": "_amount",
					"type": "uint256"
				}
			],
			"name": "depositUSDC",
			"outputs": [],
			"stateMutability": "nonpayable",
			"type": "function"
		},
		{
			"inputs": [
				{
					"internalType": "address",
					"name": "_tokenAddress",
					"type": "address"
				}
			],
			"name": "getBalance",
			"outputs": [
				{
					"internalType": "uint256",
					"name": "",
					"type": "uint256"
				}
			],
			"stateMutability": "view",
			"type": "function"
		},
		{
			"inputs": [],
			"name": "owner",
			"outputs": [
				{
					"internalType": "address payable",
					"name": "",
					"type": "address"
				}
			],
			"stateMutability": "view",
			"type": "function"
		},
		{
			"inputs": [],
			"name": "sellDAI",
			"outputs": [],
			"stateMutability": "nonpayable",
			"type": "function"
		},
		{
			"inputs": [
				{
					"internalType": "address",
					"name": "",
					"type": "address"
				}
			],
			"name": "usdcBalances",
			"outputs": [
				{
					"internalType": "uint256",
					"name": "",
					"type": "uint256"
				}
			],
			"stateMutability": "view",
			"type": "function"
		},
		{
			"inputs": [
				{
					"internalType": "address",
					"name": "_tokenAddress",
					"type": "address"
				}
			],
			"name": "withdraw",
			"outputs": [],
			"stateMutability": "nonpayable",
			"type": "function"
		},
		{
			"stateMutability": "payable",
			"type": "receive"
		}
	],
	"bytecode": "0x60c060405273ff34b3d4aee8ddcd6f9afffb6fe49bd371b8a35773ffffffffffffffffffffffffffffffffffffffff1660809073ffffffffffffffffffffffffffffffffffffffff168152507394a9d9ac8a22534e3faca9f4e7f2e2cf85d5e4c873ffffffffffffffffffffffffffffffffffffffff1660a09073ffffffffffffffffffffffffffffffffffffffff16815250605a60035560646004553480156100a7575f80fd5b50335f806101000a81548173ffffffffffffffffffffffffffffffffffffffff021916908373ffffffffffffffffffffffffffffffffffffffff16021790555060805160015f6101000a81548173ffffffffffffffffffffffffffffffffffffffff021916908373ffffffffffffffffffffffffffffffffffffffff16021790555060a05160025f6101000a81548173ffffffffffffffffffffffffffffffffffffffff021916908373ffffffffffffffffffffffffffffffffffffffff16021790555060805160a051610ef96101865f395f50505f5050610ef95ff3fe608060405260043610610089575f3560e01c80638da5cb5b116100585780638da5cb5b14610110578063a99c68c51461013a578063ef06734214610176578063f688bcfb146101b2578063f8b2cb4f146101da57610090565b806305abf9041461009457806315602991146100aa578063365833e1146100c057806351cff8d9146100e857610090565b3661009057005b5f80fd5b34801561009f575f80fd5b506100a8610216565b005b3480156100b5575f80fd5b506100be610320565b005b3480156100cb575f80fd5b506100e660048036038101906100e19190610a64565b61042a565b005b3480156100f3575f80fd5b5061010e60048036038101906101099190610ae9565b610601565b005b34801561011b575f80fd5b50610124610789565b6040516101319190610b34565b60405180910390f35b348015610145575f80fd5b50610160600480360381019061015b9190610ae9565b6107ac565b60405161016d9190610b5c565b60405180910390f35b348015610181575f80fd5b5061019c60048036038101906101979190610ae9565b6107c1565b6040516101a99190610b5c565b60405180910390f35b3480156101bd575f80fd5b506101d860048036038101906101d39190610a64565b6107d6565b005b3480156101e5575f80fd5b5061020060048036038101906101fb9190610ae9565b6109ad565b60405161020d9190610b5c565b60405180910390f35b5f64e8d4a51000606460035460065f3373ffffffffffffffffffffffffffffffffffffffff1673ffffffffffffffffffffffffffffffffffffffff1681526020019081526020015f205461026a9190610bcf565b6102749190610bff565b61027e9190610bff565b905060015f9054906101000a900473ffffffffffffffffffffffffffffffffffffffff1673ffffffffffffffffffffffffffffffffffffffff1663a9059cbb33836040518363ffffffff1660e01b81526004016102dc929190610c4f565b6020604051808303815f875af11580156102f8573d5f803e3d5ffd5b505050506040513d601f19601f8201168201806040525081019061031c9190610cab565b5050565b5f64e8d4a51000606460045460055f3373ffffffffffffffffffffffffffffffffffffffff1673ffffffffffffffffffffffffffffffffffffffff1681526020019081526020015f20546103749190610bff565b61037e9190610bcf565b6103889190610bcf565b905060025f9054906101000a900473ffffffffffffffffffffffffffffffffffffffff1673ffffffffffffffffffffffffffffffffffffffff1663a9059cbb33836040518363ffffffff1660e01b81526004016103e6929190610c4f565b6020604051808303815f875af1158015610402573d5f803e3d5ffd5b505050506040513d601f19601f820116820180604052508101906104269190610cab565b5050565b8060055f3373ffffffffffffffffffffffffffffffffffffffff1673ffffffffffffffffffffffffffffffffffffffff1681526020019081526020015f205f8282546104769190610cd6565b925050819055505f60015f9054906101000a900473ffffffffffffffffffffffffffffffffffffffff1673ffffffffffffffffffffffffffffffffffffffff1663dd62ed3e33306040518363ffffffff1660e01b81526004016104da929190610d09565b602060405180830381865afa1580156104f5573d5f803e3d5ffd5b505050506040513d601f19601f820116820180604052508101906105199190610d44565b90508181101561055e576040517f08c379a000000000000000000000000000000000000000000000000000000000815260040161055590610dc9565b60405180910390fd5b60015f9054906101000a900473ffffffffffffffffffffffffffffffffffffffff1673ffffffffffffffffffffffffffffffffffffffff166323b872dd3330856040518463ffffffff1660e01b81526004016105bc93929190610de7565b6020604051808303815f875af11580156105d8573d5f803e3d5ffd5b505050506040513d601f19601f820116820180604052508101906105fc9190610cab565b505050565b5f8054906101000a900473ffffffffffffffffffffffffffffffffffffffff1673ffffffffffffffffffffffffffffffffffffffff163373ffffffffffffffffffffffffffffffffffffffff161461068e576040517f08c379a000000000000000000000000000000000000000000000000000000000815260040161068590610e8c565b60405180910390fd5b5f8190508073ffffffffffffffffffffffffffffffffffffffff1663a9059cbb338373ffffffffffffffffffffffffffffffffffffffff166370a08231306040518263ffffffff1660e01b81526004016106e89190610eaa565b602060405180830381865afa158015610703573d5f803e3d5ffd5b505050506040513d601f19601f820116820180604052508101906107279190610d44565b6040518363ffffffff1660e01b8152600401610744929190610c4f565b6020604051808303815f875af1158015610760573d5f803e3d5ffd5b505050506040513d601f19601f820116820180604052508101906107849190610cab565b505050565b5f8054906101000a900473ffffffffffffffffffffffffffffffffffffffff1681565b6006602052805f5260405f205f915090505481565b6005602052805f5260405f205f915090505481565b8060065f3373ffffffffffffffffffffffffffffffffffffffff1673ffffffffffffffffffffffffffffffffffffffff1681526020019081526020015f205f8282546108229190610cd6565b925050819055505f60025f9054906101000a900473ffffffffffffffffffffffffffffffffffffffff1673ffffffffffffffffffffffffffffffffffffffff1663dd62ed3e33306040518363ffffffff1660e01b8152600401610886929190610d09565b602060405180830381865afa1580156108a1573d5f803e3d5ffd5b505050506040513d601f19601f820116820180604052508101906108c59190610d44565b90508181101561090a576040517f08c379a000000000000000000000000000000000000000000000000000000000815260040161090190610dc9565b60405180910390fd5b60025f9054906101000a900473ffffffffffffffffffffffffffffffffffffffff1673ffffffffffffffffffffffffffffffffffffffff166323b872dd3330856040518463ffffffff1660e01b815260040161096893929190610de7565b6020604051808303815f875af1158015610984573d5f803e3d5ffd5b505050506040513d601f19601f820116820180604052508101906109a89190610cab565b505050565b5f8173ffffffffffffffffffffffffffffffffffffffff166370a08231306040518263ffffffff1660e01b81526004016109e79190610eaa565b602060405180830381865afa158015610a02573d5f803e3d5ffd5b505050506040513d601f19601f82011682018060405250810190610a269190610d44565b9050919050565b5f80fd5b5f819050919050565b610a4381610a31565b8114610a4d575f80fd5b50565b5f81359050610a5e81610a3a565b92915050565b5f60208284031215610a7957610a78610a2d565b5b5f610a8684828501610a50565b91505092915050565b5f73ffffffffffffffffffffffffffffffffffffffff82169050919050565b5f610ab882610a8f565b9050919050565b610ac881610aae565b8114610ad2575f80fd5b50565b5f81359050610ae381610abf565b92915050565b5f60208284031215610afe57610afd610a2d565b5b5f610b0b84828501610ad5565b91505092915050565b5f610b1e82610a8f565b9050919050565b610b2e81610b14565b82525050565b5f602082019050610b475f830184610b25565b92915050565b610b5681610a31565b82525050565b5f602082019050610b6f5f830184610b4d565b92915050565b7f4e487b71000000000000000000000000000000000000000000000000000000005f52601260045260245ffd5b7f4e487b71000000000000000000000000000000000000000000000000000000005f52601160045260245ffd5b5f610bd982610a31565b9150610be483610a31565b925082610bf457610bf3610b75565b5b828204905092915050565b5f610c0982610a31565b9150610c1483610a31565b9250828202610c2281610a31565b91508282048414831517610c3957610c38610ba2565b5b5092915050565b610c4981610aae565b82525050565b5f604082019050610c625f830185610c40565b610c6f6020830184610b4d565b9392505050565b5f8115159050919050565b610c8a81610c76565b8114610c94575f80fd5b50565b5f81519050610ca581610c81565b92915050565b5f60208284031215610cc057610cbf610a2d565b5b5f610ccd84828501610c97565b91505092915050565b5f610ce082610a31565b9150610ceb83610a31565b9250828201905080821115610d0357610d02610ba2565b5b92915050565b5f604082019050610d1c5f830185610c40565b610d296020830184610c40565b9392505050565b5f81519050610d3e81610a3a565b92915050565b5f60208284031215610d5957610d58610a2d565b5b5f610d6684828501610d30565b91505092915050565b5f82825260208201905092915050565b7f436865636b2074686520746f6b656e20616c6c6f77616e6365000000000000005f82015250565b5f610db3601983610d6f565b9150610dbe82610d7f565b602082019050919050565b5f6020820190508181035f830152610de081610da7565b9050919050565b5f606082019050610dfa5f830186610c40565b610e076020830185610c40565b610e146040830184610b4d565b949350505050565b7f4f6e6c792074686520636f6e7472616374206f776e65722063616e2063616c6c5f8201527f20746869732066756e6374696f6e000000000000000000000000000000000000602082015250565b5f610e76602e83610d6f565b9150610e8182610e1c565b604082019050919050565b5f6020820190508181035f830152610ea381610e6a565b9050919050565b5f602082019050610ebd5f830184610c40565b9291505056fea2646970667358221220833526a391e74f8e8575556a28aee60776924a474d5f8b0597769c83190970f164736f6c63430008160033",
	"deployedBytecode": "0x31904f5D0F5baB5aF2e2ebCE1c21Ae94bB55ab4d",
	"linkReferences": {},
	"deployedLinkReferences": {}
}