{
	"_format": "hh-sol-artifact-1",
	"contractName": "FlashLoanArbitrage",
	"sourceName": "contracts/FlashLoanArbitrage.sol",
	"abi": [
		{
			"inputs": [
				{
					"internalType": "address",
					"name": "_addressProvider",
					"type": "address"
				}
			],
			"stateMutability": "nonpayable",
			"type": "constructor"
		},
		{
			"inputs": [],
			"name": "ADDRESSES_PROVIDER",
			"outputs": [
				{
					"internalType": "contract IPoolAddressesProvider",
					"name": "",
					"type": "address"
				}
			],
			"stateMutability": "view",
			"type": "function"
		},
		{
			"inputs": [],
			"name": "POOL",
			"outputs": [
				{
					"internalType": "contract IPool",
					"name": "",
					"type": "address"
				}
			],
			"stateMutability": "view",
			"type": "function"
		},
		{
			"inputs": [],
			"name": "allowanceDAI",
			"outputs": [
				{
					"internalType": "uint256",
					"name": "",
					"type": "uint256"
				}
			],
			"stateMutability": "view",
			"type": "function"
		},
		{
			"inputs": [],
			"name": "allowanceUSDC",
			"outputs": [
				{
					"internalType": "uint256",
					"name": "",
					"type": "uint256"
				}
			],
			"stateMutability": "view",
			"type": "function"
		},
		{
			"inputs": [
				{
					"internalType": "uint256",
					"name": "_amount",
					"type": "uint256"
				}
			],
			"name": "approveDAI",
			"outputs": [
				{
					"internalType": "bool",
					"name": "",
					"type": "bool"
				}
			],
			"stateMutability": "nonpayable",
			"type": "function"
		},
		{
			"inputs": [
				{
					"internalType": "uint256",
					"name": "_amount",
					"type": "uint256"
				}
			],
			"name": "approveUSDC",
			"outputs": [
				{
					"internalType": "bool",
					"name": "",
					"type": "bool"
				}
			],
			"stateMutability": "nonpayable",
			"type": "function"
		},
		{
			"inputs": [
				{
					"internalType": "address",
					"name": "asset",
					"type": "address"
				},
				{
					"internalType": "uint256",
					"name": "amount",
					"type": "uint256"
				},
				{
					"internalType": "uint256",
					"name": "premium",
					"type": "uint256"
				},
				{
					"internalType": "address",
					"name": "initiator",
					"type": "address"
				},
				{
					"internalType": "bytes",
					"name": "params",
					"type": "bytes"
				}
			],
			"name": "executeOperation",
			"outputs": [
				{
					"internalType": "bool",
					"name": "",
					"type": "bool"
				}
			],
			"stateMutability": "nonpayable",
			"type": "function"
		},
		{
			"inputs": [
				{
					"internalType": "address",
					"name": "_tokenAddress",
					"type": "address"
				}
			],
			"name": "getBalance",
			"outputs": [
				{
					"internalType": "uint256",
					"name": "",
					"type": "uint256"
				}
			],
			"stateMutability": "view",
			"type": "function"
		},
		{
			"inputs": [
				{
					"internalType": "address",
					"name": "_token",
					"type": "address"
				},
				{
					"internalType": "uint256",
					"name": "_amount",
					"type": "uint256"
				}
			],
			"name": "requestFlashLoan",
			"outputs": [],
			"stateMutability": "nonpayable",
			"type": "function"
		},
		{
			"inputs": [
				{
					"internalType": "address",
					"name": "_tokenAddress",
					"type": "address"
				}
			],
			"name": "withdraw",
			"outputs": [],
			"stateMutability": "nonpayable",
			"type": "function"
		},
		{
			"stateMutability": "payable",
			"type": "receive"
		}
	],
	"bytecode": "0x61010060405273ff34b3d4aee8ddcd6f9afffb6fe49bd371b8a35773ffffffffffffffffffffffffffffffffffffffff1660c09073ffffffffffffffffffffffffffffffffffffffff168152507394a9d9ac8a22534e3faca9f4e7f2e2cf85d5e4c873ffffffffffffffffffffffffffffffffffffffff1660e09073ffffffffffffffffffffffffffffffffffffffff168152507331904f5d0f5bab5af2e2ebce1c21ae94bb55ab4d600160006101000a81548173ffffffffffffffffffffffffffffffffffffffff021916908373ffffffffffffffffffffffffffffffffffffffff160217905550348015620000f557600080fd5b506040516200177b3803806200177b83398181016040528101906200011b919062000390565b808073ffffffffffffffffffffffffffffffffffffffff1660808173ffffffffffffffffffffffffffffffffffffffff16815250508073ffffffffffffffffffffffffffffffffffffffff1663026b1d5f6040518163ffffffff1660e01b8152600401602060405180830381865afa1580156200019c573d6000803e3d6000fd5b505050506040513d601f19601f82011682018060405250810190620001c2919062000390565b73ffffffffffffffffffffffffffffffffffffffff1660a08173ffffffffffffffffffffffffffffffffffffffff168152505050336000806101000a81548173ffffffffffffffffffffffffffffffffffffffff021916908373ffffffffffffffffffffffffffffffffffffffff16021790555060c051600260006101000a81548173ffffffffffffffffffffffffffffffffffffffff021916908373ffffffffffffffffffffffffffffffffffffffff16021790555060e051600360006101000a81548173ffffffffffffffffffffffffffffffffffffffff021916908373ffffffffffffffffffffffffffffffffffffffff160217905550600160009054906101000a900473ffffffffffffffffffffffffffffffffffffffff16600460006101000a81548173ffffffffffffffffffffffffffffffffffffffff021916908373ffffffffffffffffffffffffffffffffffffffff16021790555050620003c2565b600080fd5b600073ffffffffffffffffffffffffffffffffffffffff82169050919050565b600062000358826200032b565b9050919050565b6200036a816200034b565b81146200037657600080fd5b50565b6000815190506200038a816200035f565b92915050565b600060208284031215620003a957620003a862000326565b5b6000620003b98482850162000379565b91505092915050565b60805160a05160c05160e051611377620004046000396000505060005050600081816105a4015281816109570152610b320152600061029501526113776000f3fe6080604052600436106100955760003560e01c80637535d246116100595780637535d2461461019a5780637970f920146101c55780639787ea13146101f0578063d54ba9541461022d578063f8b2cb4f146102565761009c565b80630542975c146100a15780631b11d0ff146100cc578063294028ce1461010957806351cff8d9146101345780635f80a9cf1461015d5761009c565b3661009c57005b600080fd5b3480156100ad57600080fd5b506100b6610293565b6040516100c39190610cce565b60405180910390f35b3480156100d857600080fd5b506100f360048036038101906100ee9190610dcc565b6102b7565b6040516101009190610e81565b60405180910390f35b34801561011557600080fd5b5061011e610634565b60405161012b9190610eab565b60405180910390f35b34801561014057600080fd5b5061015b60048036038101906101569190610ec6565b6106fb565b005b34801561016957600080fd5b50610184600480360381019061017f9190610ef3565b61088a565b6040516101919190610e81565b60405180910390f35b3480156101a657600080fd5b506101af610955565b6040516101bc9190610f41565b60405180910390f35b3480156101d157600080fd5b506101da610979565b6040516101e79190610eab565b60405180910390f35b3480156101fc57600080fd5b5061021760048036038101906102129190610ef3565b610a40565b6040516102249190610e81565b60405180910390f35b34801561023957600080fd5b50610254600480360381019061024f9190610f5c565b610b0b565b005b34801561026257600080fd5b5061027d60048036038101906102789190610ec6565b610bcc565b60405161028a9190610eab565b60405180910390f35b7f000000000000000000000000000000000000000000000000000000000000000081565b6000600460009054906101000a900473ffffffffffffffffffffffffffffffffffffffff1673ffffffffffffffffffffffffffffffffffffffff1663f688bcfb633b9aca006040518263ffffffff1660e01b81526004016103189190610fd7565b600060405180830381600087803b15801561033257600080fd5b505af1158015610346573d6000803e3d6000fd5b50505050600460009054906101000a900473ffffffffffffffffffffffffffffffffffffffff1673ffffffffffffffffffffffffffffffffffffffff166305abf9046040518163ffffffff1660e01b8152600401600060405180830381600087803b1580156103b457600080fd5b505af11580156103c8573d6000803e3d6000fd5b50505050600460009054906101000a900473ffffffffffffffffffffffffffffffffffffffff1673ffffffffffffffffffffffffffffffffffffffff1663365833e1600260009054906101000a900473ffffffffffffffffffffffffffffffffffffffff1673ffffffffffffffffffffffffffffffffffffffff166370a08231306040518263ffffffff1660e01b81526004016104659190611001565b602060405180830381865afa158015610482573d6000803e3d6000fd5b505050506040513d601f19601f820116820180604052508101906104a69190611031565b6040518263ffffffff1660e01b81526004016104c29190610eab565b600060405180830381600087803b1580156104dc57600080fd5b505af11580156104f0573d6000803e3d6000fd5b50505050600460009054906101000a900473ffffffffffffffffffffffffffffffffffffffff1673ffffffffffffffffffffffffffffffffffffffff1663156029916040518163ffffffff1660e01b8152600401600060405180830381600087803b15801561055e57600080fd5b505af1158015610572573d6000803e3d6000fd5b5050505060008587610584919061108d565b90508773ffffffffffffffffffffffffffffffffffffffff1663095ea7b37f0000000000000000000000000000000000000000000000000000000000000000836040518363ffffffff1660e01b81526004016105e19291906110e3565b6020604051808303816000875af1158015610600573d6000803e3d6000fd5b505050506040513d601f19601f820116820180604052508101906106249190611138565b5060019150509695505050505050565b6000600260009054906101000a900473ffffffffffffffffffffffffffffffffffffffff1673ffffffffffffffffffffffffffffffffffffffff1663dd62ed3e30600160009054906101000a900473ffffffffffffffffffffffffffffffffffffffff166040518363ffffffff1660e01b81526004016106b5929190611165565b602060405180830381865afa1580156106d2573d6000803e3d6000fd5b505050506040513d601f19601f820116820180604052508101906106f69190611031565b905090565b60008054906101000a900473ffffffffffffffffffffffffffffffffffffffff1673ffffffffffffffffffffffffffffffffffffffff163373ffffffffffffffffffffffffffffffffffffffff1614610789576040517f08c379a000000000000000000000000000000000000000000000000000000000815260040161078090611211565b60405180910390fd5b60008190508073ffffffffffffffffffffffffffffffffffffffff1663a9059cbb338373ffffffffffffffffffffffffffffffffffffffff166370a08231306040518263ffffffff1660e01b81526004016107e49190611001565b602060405180830381865afa158015610801573d6000803e3d6000fd5b505050506040513d601f19601f820116820180604052508101906108259190611031565b6040518363ffffffff1660e01b81526004016108429291906110e3565b6020604051808303816000875af1158015610861573d6000803e3d6000fd5b505050506040513d601f19601f820116820180604052508101906108859190611138565b505050565b6000600360009054906101000a900473ffffffffffffffffffffffffffffffffffffffff1673ffffffffffffffffffffffffffffffffffffffff1663095ea7b3600160009054906101000a900473ffffffffffffffffffffffffffffffffffffffff16846040518363ffffffff1660e01b815260040161090b9291906110e3565b6020604051808303816000875af115801561092a573d6000803e3d6000fd5b505050506040513d601f19601f8201168201806040525081019061094e9190611138565b9050919050565b7f000000000000000000000000000000000000000000000000000000000000000081565b6000600360009054906101000a900473ffffffffffffffffffffffffffffffffffffffff1673ffffffffffffffffffffffffffffffffffffffff1663dd62ed3e30600160009054906101000a900473ffffffffffffffffffffffffffffffffffffffff166040518363ffffffff1660e01b81526004016109fa929190611165565b602060405180830381865afa158015610a17573d6000803e3d6000fd5b505050506040513d601f19601f82011682018060405250810190610a3b9190611031565b905090565b6000600260009054906101000a900473ffffffffffffffffffffffffffffffffffffffff1673ffffffffffffffffffffffffffffffffffffffff1663095ea7b3600160009054906101000a900473ffffffffffffffffffffffffffffffffffffffff16846040518363ffffffff1660e01b8152600401610ac19291906110e3565b6020604051808303816000875af1158015610ae0573d6000803e3d6000fd5b505050506040513d601f19601f82011682018060405250810190610b049190611138565b9050919050565b600030905060008390506000839050600060405180602001604052806000815250905060007f000000000000000000000000000000000000000000000000000000000000000073ffffffffffffffffffffffffffffffffffffffff166342b0b77c86868686866040518663ffffffff1660e01b8152600401610b919594939291906112e7565b600060405180830381600087803b158015610bab57600080fd5b505af1158015610bbf573d6000803e3d6000fd5b5050505050505050505050565b60008173ffffffffffffffffffffffffffffffffffffffff166370a08231306040518263ffffffff1660e01b8152600401610c079190611001565b602060405180830381865afa158015610c24573d6000803e3d6000fd5b505050506040513d601f19601f82011682018060405250810190610c489190611031565b9050919050565b600073ffffffffffffffffffffffffffffffffffffffff82169050919050565b6000819050919050565b6000610c94610c8f610c8a84610c4f565b610c6f565b610c4f565b9050919050565b6000610ca682610c79565b9050919050565b6000610cb882610c9b565b9050919050565b610cc881610cad565b82525050565b6000602082019050610ce36000830184610cbf565b92915050565b600080fd5b600080fd5b6000610cfe82610c4f565b9050919050565b610d0e81610cf3565b8114610d1957600080fd5b50565b600081359050610d2b81610d05565b92915050565b6000819050919050565b610d4481610d31565b8114610d4f57600080fd5b50565b600081359050610d6181610d3b565b92915050565b600080fd5b600080fd5b600080fd5b60008083601f840112610d8c57610d8b610d67565b5b8235905067ffffffffffffffff811115610da957610da8610d6c565b5b602083019150836001820283011115610dc557610dc4610d71565b5b9250929050565b60008060008060008060a08789031215610de957610de8610ce9565b5b6000610df789828a01610d1c565b9650506020610e0889828a01610d52565b9550506040610e1989828a01610d52565b9450506060610e2a89828a01610d1c565b935050608087013567ffffffffffffffff811115610e4b57610e4a610cee565b5b610e5789828a01610d76565b92509250509295509295509295565b60008115159050919050565b610e7b81610e66565b82525050565b6000602082019050610e966000830184610e72565b92915050565b610ea581610d31565b82525050565b6000602082019050610ec06000830184610e9c565b92915050565b600060208284031215610edc57610edb610ce9565b5b6000610eea84828501610d1c565b91505092915050565b600060208284031215610f0957610f08610ce9565b5b6000610f1784828501610d52565b91505092915050565b6000610f2b82610c9b565b9050919050565b610f3b81610f20565b82525050565b6000602082019050610f566000830184610f32565b92915050565b60008060408385031215610f7357610f72610ce9565b5b6000610f8185828601610d1c565b9250506020610f9285828601610d52565b9150509250929050565b6000819050919050565b6000610fc1610fbc610fb784610f9c565b610c6f565b610d31565b9050919050565b610fd181610fa6565b82525050565b6000602082019050610fec6000830184610fc8565b92915050565b610ffb81610cf3565b82525050565b60006020820190506110166000830184610ff2565b92915050565b60008151905061102b81610d3b565b92915050565b60006020828403121561104757611046610ce9565b5b60006110558482850161101c565b91505092915050565b7f4e487b7100000000000000000000000000000000000000000000000000000000600052601160045260246000fd5b600061109882610d31565b91506110a383610d31565b9250827fffffffffffffffffffffffffffffffffffffffffffffffffffffffffffffffff038211156110d8576110d761105e565b5b828201905092915050565b60006040820190506110f86000830185610ff2565b6111056020830184610e9c565b9392505050565b61111581610e66565b811461112057600080fd5b50565b6000815190506111328161110c565b92915050565b60006020828403121561114e5761114d610ce9565b5b600061115c84828501611123565b91505092915050565b600060408201905061117a6000830185610ff2565b6111876020830184610ff2565b9392505050565b600082825260208201905092915050565b7f4f6e6c792074686520636f6e7472616374206f776e65722063616e2063616c6c60008201527f20746869732066756e6374696f6e000000000000000000000000000000000000602082015250565b60006111fb602e8361118e565b91506112068261119f565b604082019050919050565b6000602082019050818103600083015261122a816111ee565b9050919050565b600081519050919050565b600082825260208201905092915050565b60005b8381101561126b578082015181840152602081019050611250565b8381111561127a576000848401525b50505050565b6000601f19601f8301169050919050565b600061129c82611231565b6112a6818561123c565b93506112b681856020860161124d565b6112bf81611280565b840191505092915050565b600061ffff82169050919050565b6112e1816112ca565b82525050565b600060a0820190506112fc6000830188610ff2565b6113096020830187610ff2565b6113166040830186610e9c565b81810360608301526113288185611291565b905061133760808301846112d8565b969550505050505056fea2646970667358221220cb661e5f5db7585421213d5f71271a98cbe007a1eacfaac32092fbc525142a8364736f6c634300080a0033",
	"linkReferences": {},
	"deployedLinkReferences": {}
}